:1000000012C086C12BC02AC029C028C027C026C064
:1000100025C024C023C022C021C020C01FC01EC0D4
:100020001DC01CC01BC011241FBECFE5D4E0DEBF25
:10003000CDBF10E0A0E6B0E0E2E6F4E002C005903B
:100040000D92AA36B107D9F720E0AAE6B0E001C0C8
:100050001D92AF36B207E1F7D7D101C2D1CF98E0F8
:10006000882314F4C39A01C0C398C59A880FB49921
:100070008160C5989150A1F7089587B3836087BBCD
:10008000B898C19AC09888B3877D88BB87B38862C7
:1000900087BBBC98C49A0895DF92EF92FF920F93AA
:1000A0001F93CF93DF937B01C42FC198D8DFD82E45
:1000B0009FEF9C0FCC2369F0E701092F10E00F5F41
:1000C0001F4F0E0D1F1D8FEFCADF8993C017D10779
:1000D000D1F7C19A8D2DDF91CF911F910F91FF9094
:1000E000EF90DF900895DF92EF92FF920F931F93AE
:1000F000CF93DF937B01C42FC198B1DFD82E9FEF40
:100100009C0FCC2361F0E701092F10E00F5F1F4F18
:100110000E0D1F1D8991A3DFC017D107D9F7C19A12
:100120008D2DDF91CF911F910F91FF90EF90DF9078
:100130000895C1988F7193DF8FEF91DFC19A089571
:10014000CF93DF93D62FC1988F71806288DFC82F3D
:100150008D2F85DFC19A8C2FDF91CF9108958F71FC
:100160008062C1DF0895C19880E679DF8FEF77DF85
:10017000C19A0895C19873DFC19A08951F93CF93D0
:10018000DF93CDB7DEB72A970FB6F894DEBF0FBE68
:10019000CDBF85E0E0E6F0E0DE01119601900D9222
:1001A0008A95E1F785E0E5E6F0E0DE01169601903C
:1001B0000D928A95E1F7C09815E66DE080E0C0DF0A
:1001C00080E0B7DF8D3051F0115009F444C089EF61
:1001D00090E00197F1F700C00000EFCF81EECADF99
:1001E00082EEC8DF62E081E0ABDF63E082E0A8DF9F
:1001F00063E083E0A5DF6FE184E0A2DF63E085E0F8
:100200009FDF66E086E09CDF45E0BE016A5F7F4FCE
:100210008AE0A5DF45E0BE016A5F7F4F80E19FDF96
:1002200045E0BE016F5F7F4F8BE099DF60E281E1C7
:1002300087DF60E282E184DF63E08CE181DF66E0FA
:100240008DE17EDF6FE080E07BDF80E072DF11E038
:100250008F3009F010E0812F2A960FB6F894DEBF98
:100260000FBECDBFDF91CF911F9108951F93CF9304
:10027000DF93EC01162FC09880E05BDF982F82702F
:1002800091FF12C0692F6E7F80E05ADF80FD0BC0A6
:10029000412FBE0188EA27DFC09A85E08A95F1F7F1
:1002A000C09881E001C080E0DF91CF911F91089557
:1002B00097982FE58AEE90E0215080409040E1F73A
:1002C00000C0000008950F931F93EFE4F3EC319703
:1002D000F1F700C00000FC0130813330A9F4428105
:1002E00050E0542F44273181432B8A01550F220BB4
:1002F000330B00936A0010936B0020936C003093D3
:100300006D0034E030936E00B1DF1F910F910895BE
:100310001F920F920FB60F921124FF920F931F930B
:100320002F933F934F935F936F937F938F939F93FD
:10033000AF93BF93EF93FF93CF93DF93CDB7DEB728
:10034000A097DEBFCDBFF894979A8FEF13DF182FD9
:10035000682F87E0F5DE812F8073B1F114FF03C0B1
:1003600081EE08DFA5DF87E1E4DE84FD06C0C09AE8
:1003700085E08A95F1F7C09827C080E0DADE682F23
:10038000616080E0DDDEC09A1FC004E0ECDEF82E84
:1003900080E28F1518F482EEEDDE0CC04F2DBE0109
:1003A0006F5F7F4F81E678DE123021F46F2DCE0132
:1003B000019689DF8FEFDEDE182F1E701E3011F0E0
:1003C000015021F7789404C01E701E30F1F6FACF68
:1003D000A0960FB6F894DEBF0FBECDBFDF91CF91D0
:1003E000FF91EF91BF91AF919F918F917F916F910D
:1003F0005F914F913F912F911F910F91FF900F901F
:100400000FBE0F901F9018958E9A8F9A969A2FE391
:100410008DE093E0215080409040E1F700C0000063
:100420002CDE0AC096982FE38DE093E021508040A7
:100430009040E1F700C00000A1DE882399F3969A6E
:1004400085B7807F85BF8BB780648BBF789483EF3F
:1004500091E00197F1F700C00000C09AFFCFF89437
:02046000FFCFCC
:0A046200E7E7E7E7E7C2C2C2C2C243
:00000001FF
