:1000000012C024C023C022C021C020C01FC01EC0F7
:100010001DC01CC01BC01AC019C018C017C016C014
:1000200015C014C013C011241FBECFE5D4E0DEBF3D
:10003000CDBF10E0A0E6B0E0ECE4F4E002C0059033
:100040000D92AA36B107D9F7D9D1FEC1D9CFC1983F
:100050000895C19A089598E087FF02C0C39A01C02D
:10006000C398C59A880FB4998160C5989150A1F73B
:10007000089587B3836087BBB898EBDFC09888B3D7
:10008000877D88BB87B3886287BBBC98C49A089574
:10009000EF92FF920F931F93CF93DF9300D01F92A5
:1000A000CDB7DEB7162F4A837B838983D0DF898162
:1000B000D2DF082FE12E7B81F72E4A81140F1E1507
:1000C00031F08FEFC8DFF70181937F01F8CFC1DFF7
:1000D000802F0F900F900F90DF91CF911F910F9174
:1000E000FF90EF900895EF92FF920F931F93CF939D
:1000F000DF9300D01F92CDB7DEB7162F4A837B83E4
:100100008983A5DF8981A7DF082FE12E7B81F72E68
:100110004A81140F1E1529F0F70181917F019BDFA1
:10012000F9CF97DF802F0F900F900F90DF91CF9135
:100130001F910F91FF90EF900895CF93DF931F923F
:10014000CDB7DEB7898383DF89818F7184DF8FEF3D
:1001500082DF89837EDF89810F90DF91CF910895BF
:100160001F93CF93DF9300D0CDB7DEB76A83898327
:100170006EDF89818F7180626EDF182F6A81862F12
:100180006ADF67DF812F0F900F90DF91CF911F9172
:1001900008958F718062A7CFCF93DF931F92CDB761
:1001A000DEB755DF80E657DF8FEF55DF898351DFFC
:1001B00089810F90DF91CF910895CF93DF931F92A4
:1001C000CDB7DEB7898343DF898145DF898341DF8E
:1001D00089810F90DF91CF9108958FEFEEDF982FF7
:1001E000907781E009F480E008951F93CF93DF9327
:1001F000CDB7DEB72A970FB6F894DEBF0FBECDBFDE
:1002000085E0E0E6F0E0DE01169601900D928A9519
:10021000E1F785E0E5E6F0E0DE01119601900D9250
:100220008A95E1F7C09815E66DE080E099DF80E0FF
:1002300084DF8D3051F0115009F444C089EF90E013
:100240000197F1F700C00000EFCF81EEB6DF82EE3C
:10025000B4DF62E081E084DF63E082E081DF63E0BD
:1002600083E07EDF6FE184E07BDF63E085E078DFC1
:1002700066E086E075DF45E0BE016F5F7F4F8AE094
:1002800088DF45E0BE016F5F7F4F80E182DF45E0A0
:10029000BE016A5F7F4F8BE07CDF60E281E160DF5F
:1002A00060E282E15DDF63E08CE15ADF66E08DE1D0
:1002B00057DF6FE080E054DF80E03FDF11E08F30F8
:1002C00009F010E0812F2A960FB6F894DEBF0FBE1A
:1002D000CDBFDF91CF911F9108951F93CF93DF93EF
:1002E000EC01162FC09880E028DF81FD02C080E07D
:1002F00010C0682F6E7F80E033DF80FDF8CF412F84
:10030000BE0188EAF0DEC09A85E08A95F1F7C098D0
:1003100081E0DF91CF911F91089597982FE58AEEA4
:1003200090E0215080409040E1F700C00000089527
:10033000EFE4F3EC3197F1F700C00000FC012081FD
:100340002F5F20836183C9CFFF920F931F93CF93B9
:10035000DF93CDB7DEB7A0970FB6F894DEBF0FBE20
:10036000CDBF3BDF882309F43DC08FEF26DF182F78
:10037000682F87E0F5DE812F8073B1F014FF03C092
:1003800081EE1BDFCADF87E1D8DE84FD06C0C09A9C
:1003900085E08A95F1F7C09807C080E0CEDE682F2F
:1003A000616080E0DDDEC09A05E01E701E30D1F095
:1003B0000150C1F0F1DEF82E80E28F1518F482EEC4
:1003C000FCDE0CC04F2DBE016F5F7F4F81E660DE0B
:1003D000123021F46F2DCE010196AADF8FEFEDDEF2
:1003E000182FE3CFA0960FB6F894DEBF0FBECDBF97
:1003F000DF91CF911F910F91FF9008958E9A8F9A60
:10040000969A2FE38DE093E0215080409040E1F7F1
:1004100000C000002EDEE9DE81110BC096982FE3AC
:100420008DE093E0215080409040E1F700C0000053
:10043000F2CF969A83EF91E00197F1F700C00000A8
:0C044000C09A979A81DFFDCFF894FFCF9F
:0A044C00E7E7E7E7E7C2C2C2C2C259
:00000001FF
